{
  "contractName": "CrowdFundCampaign",
  "abi": [
    {
      "inputs": [
        {
          "internalType": "string",
          "name": "_name",
          "type": "string"
        },
        {
          "internalType": "bool",
          "name": "_usingDesc",
          "type": "bool"
        },
        {
          "internalType": "string",
          "name": "_description",
          "type": "string"
        },
        {
          "internalType": "string",
          "name": "_link",
          "type": "string"
        },
        {
          "internalType": "string",
          "name": "_linkHash",
          "type": "string"
        },
        {
          "internalType": "uint256",
          "name": "_minTierValue",
          "type": "uint256"
        },
        {
          "internalType": "uint256",
          "name": "_numTiers",
          "type": "uint256"
        },
        {
          "internalType": "uint256",
          "name": "_target",
          "type": "uint256"
        }
      ],
      "payable": false,
      "stateMutability": "nonpayable",
      "type": "constructor"
    },
    {
      "constant": true,
      "inputs": [],
      "name": "closed",
      "outputs": [
        {
          "internalType": "bool",
          "name": "",
          "type": "bool"
        }
      ],
      "payable": false,
      "stateMutability": "view",
      "type": "function"
    },
    {
      "constant": true,
      "inputs": [],
      "name": "description",
      "outputs": [
        {
          "internalType": "string",
          "name": "",
          "type": "string"
        }
      ],
      "payable": false,
      "stateMutability": "view",
      "type": "function"
    },
    {
      "constant": true,
      "inputs": [],
      "name": "endDate",
      "outputs": [
        {
          "internalType": "uint256",
          "name": "",
          "type": "uint256"
        }
      ],
      "payable": false,
      "stateMutability": "view",
      "type": "function"
    },
    {
      "constant": true,
      "inputs": [],
      "name": "funding",
      "outputs": [
        {
          "internalType": "uint256",
          "name": "",
          "type": "uint256"
        }
      ],
      "payable": false,
      "stateMutability": "view",
      "type": "function"
    },
    {
      "constant": true,
      "inputs": [],
      "name": "fundingAccepted",
      "outputs": [
        {
          "internalType": "bool",
          "name": "",
          "type": "bool"
        }
      ],
      "payable": false,
      "stateMutability": "view",
      "type": "function"
    },
    {
      "constant": true,
      "inputs": [],
      "name": "link",
      "outputs": [
        {
          "internalType": "string",
          "name": "",
          "type": "string"
        }
      ],
      "payable": false,
      "stateMutability": "view",
      "type": "function"
    },
    {
      "constant": true,
      "inputs": [],
      "name": "linkHash",
      "outputs": [
        {
          "internalType": "string",
          "name": "",
          "type": "string"
        }
      ],
      "payable": false,
      "stateMutability": "view",
      "type": "function"
    },
    {
      "constant": true,
      "inputs": [],
      "name": "minTierValue",
      "outputs": [
        {
          "internalType": "uint256",
          "name": "",
          "type": "uint256"
        }
      ],
      "payable": false,
      "stateMutability": "view",
      "type": "function"
    },
    {
      "constant": true,
      "inputs": [],
      "name": "name",
      "outputs": [
        {
          "internalType": "string",
          "name": "",
          "type": "string"
        }
      ],
      "payable": false,
      "stateMutability": "view",
      "type": "function"
    },
    {
      "constant": true,
      "inputs": [],
      "name": "numTiers",
      "outputs": [
        {
          "internalType": "uint256",
          "name": "",
          "type": "uint256"
        }
      ],
      "payable": false,
      "stateMutability": "view",
      "type": "function"
    },
    {
      "constant": true,
      "inputs": [],
      "name": "owner",
      "outputs": [
        {
          "internalType": "address payable",
          "name": "",
          "type": "address"
        }
      ],
      "payable": false,
      "stateMutability": "view",
      "type": "function"
    },
    {
      "constant": true,
      "inputs": [
        {
          "internalType": "address",
          "name": "",
          "type": "address"
        }
      ],
      "name": "pledgedAmount",
      "outputs": [
        {
          "internalType": "uint256",
          "name": "",
          "type": "uint256"
        }
      ],
      "payable": false,
      "stateMutability": "view",
      "type": "function"
    },
    {
      "constant": true,
      "inputs": [
        {
          "internalType": "uint256",
          "name": "",
          "type": "uint256"
        }
      ],
      "name": "pledgers",
      "outputs": [
        {
          "internalType": "address payable",
          "name": "",
          "type": "address"
        }
      ],
      "payable": false,
      "stateMutability": "view",
      "type": "function"
    },
    {
      "constant": true,
      "inputs": [],
      "name": "pledges",
      "outputs": [
        {
          "internalType": "uint256",
          "name": "",
          "type": "uint256"
        }
      ],
      "payable": false,
      "stateMutability": "view",
      "type": "function"
    },
    {
      "constant": true,
      "inputs": [],
      "name": "target",
      "outputs": [
        {
          "internalType": "uint256",
          "name": "",
          "type": "uint256"
        }
      ],
      "payable": false,
      "stateMutability": "view",
      "type": "function"
    },
    {
      "constant": true,
      "inputs": [
        {
          "internalType": "string",
          "name": "",
          "type": "string"
        }
      ],
      "name": "tierNameToIndex",
      "outputs": [
        {
          "internalType": "uint256",
          "name": "",
          "type": "uint256"
        }
      ],
      "payable": false,
      "stateMutability": "view",
      "type": "function"
    },
    {
      "constant": true,
      "inputs": [
        {
          "internalType": "uint256",
          "name": "",
          "type": "uint256"
        }
      ],
      "name": "tiers",
      "outputs": [
        {
          "internalType": "string",
          "name": "name",
          "type": "string"
        },
        {
          "internalType": "string",
          "name": "description",
          "type": "string"
        },
        {
          "internalType": "uint256",
          "name": "cost",
          "type": "uint256"
        },
        {
          "internalType": "uint256",
          "name": "quantity",
          "type": "uint256"
        },
        {
          "internalType": "uint256",
          "name": "pledges",
          "type": "uint256"
        }
      ],
      "payable": false,
      "stateMutability": "view",
      "type": "function"
    },
    {
      "constant": true,
      "inputs": [],
      "name": "usingDesc",
      "outputs": [
        {
          "internalType": "bool",
          "name": "",
          "type": "bool"
        }
      ],
      "payable": false,
      "stateMutability": "view",
      "type": "function"
    },
    {
      "constant": false,
      "inputs": [
        {
          "internalType": "string",
          "name": "_name",
          "type": "string"
        },
        {
          "internalType": "string",
          "name": "_description",
          "type": "string"
        },
        {
          "internalType": "uint256",
          "name": "_cost",
          "type": "uint256"
        },
        {
          "internalType": "uint256",
          "name": "_quantity",
          "type": "uint256"
        }
      ],
      "name": "addTier",
      "outputs": [],
      "payable": false,
      "stateMutability": "nonpayable",
      "type": "function"
    },
    {
      "constant": false,
      "inputs": [],
      "name": "startCampaign",
      "outputs": [],
      "payable": false,
      "stateMutability": "nonpayable",
      "type": "function"
    },
    {
      "constant": true,
      "inputs": [],
      "name": "started",
      "outputs": [
        {
          "internalType": "bool",
          "name": "",
          "type": "bool"
        }
      ],
      "payable": false,
      "stateMutability": "view",
      "type": "function"
    },
    {
      "constant": true,
      "inputs": [],
      "name": "ended",
      "outputs": [
        {
          "internalType": "bool",
          "name": "",
          "type": "bool"
        }
      ],
      "payable": false,
      "stateMutability": "view",
      "type": "function"
    },
    {
      "constant": true,
      "inputs": [],
      "name": "linkHashUnchanged",
      "outputs": [
        {
          "internalType": "bool",
          "name": "",
          "type": "bool"
        }
      ],
      "payable": false,
      "stateMutability": "pure",
      "type": "function"
    },
    {
      "constant": true,
      "inputs": [],
      "name": "funded",
      "outputs": [
        {
          "internalType": "bool",
          "name": "",
          "type": "bool"
        }
      ],
      "payable": false,
      "stateMutability": "view",
      "type": "function"
    },
    {
      "constant": false,
      "inputs": [
        {
          "internalType": "string",
          "name": "_tierName",
          "type": "string"
        }
      ],
      "name": "pledge",
      "outputs": [],
      "payable": true,
      "stateMutability": "payable",
      "type": "function"
    },
    {
      "constant": false,
      "inputs": [],
      "name": "returnFundsToPledgersByOwner",
      "outputs": [],
      "payable": false,
      "stateMutability": "nonpayable",
      "type": "function"
    },
    {
      "constant": false,
      "inputs": [],
      "name": "returnFundsToPledgersByPledger",
      "outputs": [],
      "payable": false,
      "stateMutability": "nonpayable",
      "type": "function"
    },
    {
      "constant": false,
      "inputs": [],
      "name": "sendFundsToOwner",
      "outputs": [],
      "payable": false,
      "stateMutability": "nonpayable",
      "type": "function"
    }
  ],
  "bytecode": "0x608060405260006008556000600d556000600f556000601060006101000a81548160ff0219169083151502179055506000601060016101000a81548160ff02191690831515021790555060006011553480156200005b57600080fd5b50604051620020ad380380620020ad83398181016040526101008110156200008257600080fd5b8101908080516040519392919084640100000000821115620000a357600080fd5b83820191506020820185811115620000ba57600080fd5b8251866001820283011164010000000082111715620000d857600080fd5b8083526020830192505050908051906020019080838360005b838110156200010e578082015181840152602081019050620000f1565b50505050905090810190601f1680156200013c5780820380516001836020036101000a031916815260200191505b5060405260200180519060200190929190805160405193929190846401000000008211156200016a57600080fd5b838201915060208201858111156200018157600080fd5b82518660018202830111640100000000821117156200019f57600080fd5b8083526020830192505050908051906020019080838360005b83811015620001d5578082015181840152602081019050620001b8565b50505050905090810190601f168015620002035780820380516001836020036101000a031916815260200191505b50604052602001805160405193929190846401000000008211156200022757600080fd5b838201915060208201858111156200023e57600080fd5b82518660018202830111640100000000821117156200025c57600080fd5b8083526020830192505050908051906020019080838360005b838110156200029257808201518184015260208101905062000275565b50505050905090810190601f168015620002c05780820380516001836020036101000a031916815260200191505b5060405260200180516040519392919084640100000000821115620002e457600080fd5b83820191506020820185811115620002fb57600080fd5b82518660018202830111640100000000821117156200031957600080fd5b8083526020830192505050908051906020019080838360005b838110156200034f57808201518184015260208101905062000332565b50505050905090810190601f1680156200037d5780820380516001836020036101000a031916815260200191505b506040526020018051906020019092919080519060200190929190805190602001909291905050508760009080519060200190620003bd92919062000487565b5086600160006101000a81548160ff0219169083151502179055508560029080519060200190620003f092919062000487565b5084600390805190602001906200040992919062000487565b5083600490805190602001906200042292919062000487565b5033600560006101000a81548173ffffffffffffffffffffffffffffffffffffffff021916908373ffffffffffffffffffffffffffffffffffffffff160217905550826007819055508160098190555080600e81905550505050505050505062000536565b828054600181600116156101000203166002900490600052602060002090601f016020900481019282601f10620004ca57805160ff1916838001178555620004fb565b82800160010185558215620004fb579182015b82811115620004fa578251825591602001919060010190620004dd565b5b5090506200050a91906200050e565b5090565b6200053391905b808211156200052f57600081600090555060010162000515565b5090565b90565b611b6780620005466000396000f3fe6080604052600436106101b75760003560e01c80635ad22905116100ec578063c24a0f8b1161008a578063d2b7fe1811610064578063d2b7fe1814610ab4578063d454afff14610ae3578063d4b8399214610bbf578063f3a504f214610bea576101b7565b8063c24a0f8b14610a47578063c89e5cf714610a72578063cb4c86b714610a89576101b7565b8063839fd9e5116100c6578063839fd9e51461084f5780638da5cb5b14610866578063a8b78ed0146108bd578063bf82d2b1146108d4576101b7565b80635ad22905146107655780637284e4161461079057806375f5cc5414610820576101b7565b80631f2698ab116101595780633c2f4a97116101335780633c2f4a971461062b57806340445a4f146106905780634920922a146106bb578063597e1fb514610736576101b7565b80631f2698ab146105a2578063229596a4146105d15780632762993514610600576101b7565b80631c4695f4116101955780631c4695f4146103b05780631c6f5d61146104405780631dce626f146104d05780631e991b681461058b576101b7565b8063039af9eb146101bc57806306fdde03146102f157806312fa6feb14610381575b600080fd5b3480156101c857600080fd5b506101f5600480360360208110156101df57600080fd5b8101908080359060200190929190505050610c19565b604051808060200180602001868152602001858152602001848152602001838103835288818151815260200191508051906020019080838360005b8381101561024b578082015181840152602081019050610230565b50505050905090810190601f1680156102785780820380516001836020036101000a031916815260200191505b50838103825287818151815260200191508051906020019080838360005b838110156102b1578082015181840152602081019050610296565b50505050905090810190601f1680156102de5780820380516001836020036101000a031916815260200191505b5097505050505050505060405180910390f35b3480156102fd57600080fd5b50610306610d8c565b6040518080602001828103825283818151815260200191508051906020019080838360005b8381101561034657808201518184015260208101905061032b565b50505050905090810190601f1680156103735780820380516001836020036101000a031916815260200191505b509250505060405180910390f35b34801561038d57600080fd5b50610396610e2a565b604051808215151515815260200191505060405180910390f35b3480156103bc57600080fd5b506103c5610e37565b6040518080602001828103825283818151815260200191508051906020019080838360005b838110156104055780820151818401526020810190506103ea565b50505050905090810190601f1680156104325780820380516001836020036101000a031916815260200191505b509250505060405180910390f35b34801561044c57600080fd5b50610455610ed5565b6040518080602001828103825283818151815260200191508051906020019080838360005b8381101561049557808201518184015260208101905061047a565b50505050905090810190601f1680156104c25780820380516001836020036101000a031916815260200191505b509250505060405180910390f35b610589600480360360208110156104e657600080fd5b810190808035906020019064010000000081111561050357600080fd5b82018360208201111561051557600080fd5b8035906020019184600183028401116401000000008311171561053757600080fd5b91908080601f016020809104026020016040519081016040528093929190818152602001838380828437600081840152601f19601f820116905080830192505050505050509192919290505050610f73565b005b34801561059757600080fd5b506105a06111ee565b005b3480156105ae57600080fd5b506105b761138f565b604051808215151515815260200191505060405180910390f35b3480156105dd57600080fd5b506105e661139d565b604051808215151515815260200191505060405180910390f35b34801561060c57600080fd5b506106156113a6565b6040518082815260200191505060405180910390f35b34801561063757600080fd5b5061067a6004803603602081101561064e57600080fd5b81019080803573ffffffffffffffffffffffffffffffffffffffff1690602001909291905050506113ac565b6040518082815260200191505060405180910390f35b34801561069c57600080fd5b506106a56113c4565b6040518082815260200191505060405180910390f35b3480156106c757600080fd5b506106f4600480360360208110156106de57600080fd5b81019080803590602001909291905050506113ca565b604051808273ffffffffffffffffffffffffffffffffffffffff1673ffffffffffffffffffffffffffffffffffffffff16815260200191505060405180910390f35b34801561074257600080fd5b5061074b611406565b604051808215151515815260200191505060405180910390f35b34801561077157600080fd5b5061077a611419565b6040518082815260200191505060405180910390f35b34801561079c57600080fd5b506107a561141f565b6040518080602001828103825283818151815260200191508051906020019080838360005b838110156107e55780820151818401526020810190506107ca565b50505050905090810190601f1680156108125780820380516001836020036101000a031916815260200191505b509250505060405180910390f35b34801561082c57600080fd5b506108356114bd565b604051808215151515815260200191505060405180910390f35b34801561085b57600080fd5b506108646114d0565b005b34801561087257600080fd5b5061087b611619565b604051808273ffffffffffffffffffffffffffffffffffffffff1673ffffffffffffffffffffffffffffffffffffffff16815260200191505060405180910390f35b3480156108c957600080fd5b506108d261163f565b005b3480156108e057600080fd5b50610a45600480360360808110156108f757600080fd5b810190808035906020019064010000000081111561091457600080fd5b82018360208201111561092657600080fd5b8035906020019184600183028401116401000000008311171561094857600080fd5b91908080601f016020809104026020016040519081016040528093929190818152602001838380828437600081840152601f19601f820116905080830192505050505050509192919290803590602001906401000000008111156109ab57600080fd5b8201836020820111156109bd57600080fd5b803590602001918460018302840111640100000000831117156109df57600080fd5b91908080601f016020809104026020016040519081016040528093929190818152602001838380828437600081840152601f19601f82011690508083019250505050505050919291929080359060200190929190803590602001909291905050506116c9565b005b348015610a5357600080fd5b50610a5c6118fc565b6040518082815260200191505060405180910390f35b348015610a7e57600080fd5b50610a87611902565b005b348015610a9557600080fd5b50610a9e6119f2565b6040518082815260200191505060405180910390f35b348015610ac057600080fd5b50610ac96119f8565b604051808215151515815260200191505060405180910390f35b348015610aef57600080fd5b50610ba960048036036020811015610b0657600080fd5b8101908080359060200190640100000000811115610b2357600080fd5b820183602082011115610b3557600080fd5b80359060200191846001830284011164010000000083111715610b5757600080fd5b91908080601f016020809104026020016040519081016040528093929190818152602001838380828437600081840152601f19601f820116905080830192505050505050509192919290505050611a0b565b6040518082815260200191505060405180910390f35b348015610bcb57600080fd5b50610bd4611a39565b6040518082815260200191505060405180910390f35b348015610bf657600080fd5b50610bff611a3f565b604051808215151515815260200191505060405180910390f35b60068181548110610c2657fe5b9060005260206000209060050201600091509050806000018054600181600116156101000203166002900480601f016020809104026020016040519081016040528092919081815260200182805460018160011615610100020316600290048015610cd25780601f10610ca757610100808354040283529160200191610cd2565b820191906000526020600020905b815481529060010190602001808311610cb557829003601f168201915b505050505090806001018054600181600116156101000203166002900480601f016020809104026020016040519081016040528092919081815260200182805460018160011615610100020316600290048015610d705780601f10610d4557610100808354040283529160200191610d70565b820191906000526020600020905b815481529060010190602001808311610d5357829003601f168201915b5050505050908060020154908060030154908060040154905085565b60008054600181600116156101000203166002900480601f016020809104026020016040519081016040528092919081815260200182805460018160011615610100020316600290048015610e225780601f10610df757610100808354040283529160200191610e22565b820191906000526020600020905b815481529060010190602001808311610e0557829003601f168201915b505050505081565b6000601154421015905090565b60038054600181600116156101000203166002900480601f016020809104026020016040519081016040528092919081815260200182805460018160011615610100020316600290048015610ecd5780601f10610ea257610100808354040283529160200191610ecd565b820191906000526020600020905b815481529060010190602001808311610eb057829003601f168201915b505050505081565b60048054600181600116156101000203166002900480601f016020809104026020016040519081016040528092919081815260200182805460018160011615610100020316600290048015610f6b5780601f10610f4057610100808354040283529160200191610f6b565b820191906000526020600020905b815481529060010190602001808311610f4e57829003601f168201915b505050505081565b610f7b610e2a565b15610f8557600080fd5b610f8d61138f565b610f9657600080fd5b601060009054906101000a900460ff1615610fb057600080fd5b6000600a826040518082805190602001908083835b60208310610fe85780518252602082019150602081019050602083039250610fc5565b6001836020036101000a0380198251168184511680821785525050505050509050019150509081526020016040518091039020549050600081141561102c57600080fd5b346006828154811061103a57fe5b9060005260206000209060050201600201541461105657600080fd5b6006818154811061106357fe5b9060005260206000209060050201600401546006828154811061108257fe5b9060005260206000209060050201600301541161109e57600080fd5b6000600c60003373ffffffffffffffffffffffffffffffffffffffff1673ffffffffffffffffffffffffffffffffffffffff16815260200190815260200160002054141561114d57600b3390806001815401808255809150509060018203906000526020600020016000909192909190916101000a81548173ffffffffffffffffffffffffffffffffffffffff021916908373ffffffffffffffffffffffffffffffffffffffff160217905550505b34600c60003373ffffffffffffffffffffffffffffffffffffffff1673ffffffffffffffffffffffffffffffffffffffff16815260200190815260200160002060008282540192505081905550600d6000815480929190600101919050555034600f60008282540192505081905550600681815481106111c957fe5b9060005260206000209060050201600401600081548092919060010191905055505050565b600560009054906101000a900473ffffffffffffffffffffffffffffffffffffffff1673ffffffffffffffffffffffffffffffffffffffff163373ffffffffffffffffffffffffffffffffffffffff161461124857600080fd5b611250610e2a565b61125957600080fd5b601060009054906101000a900460ff161561127357600080fd5b6001601060006101000a81548160ff0219169083151502179055506000601060016101000a81548160ff02191690831515021790555060008090505b600b8054905081101561138c576000600b82815481106112cb57fe5b9060005260206000200160009054906101000a900473ffffffffffffffffffffffffffffffffffffffff1690508073ffffffffffffffffffffffffffffffffffffffff166108fc600c60008473ffffffffffffffffffffffffffffffffffffffff1673ffffffffffffffffffffffffffffffffffffffff168152602001908152602001600020549081150290604051600060405180830381858888f1935050505015801561137d573d6000803e3d6000fd5b505080806001019150506112af565b50565b600060115460001415905090565b60006001905090565b60075481565b600c6020528060005260406000206000915090505481565b60095481565b600b81815481106113d757fe5b906000526020600020016000915054906101000a900473ffffffffffffffffffffffffffffffffffffffff1681565b601060009054906101000a900460ff1681565b600d5481565b60028054600181600116156101000203166002900480601f0160208091040260200160405190810160405280929190818152602001828054600181600116156101000203166002900480156114b55780601f1061148a576101008083540402835291602001916114b5565b820191906000526020600020905b81548152906001019060200180831161149857829003601f168201915b505050505081565b600160009054906101000a900460ff1681565b601060009054906101000a900460ff16156114ea57600080fd5b620d2f006011540142116114fd57600080fd5b6001601060006101000a81548160ff0219169083151502179055506000601060016101000a81548160ff02191690831515021790555060008090505b600b80549050811015611616576000600b828154811061155557fe5b9060005260206000200160009054906101000a900473ffffffffffffffffffffffffffffffffffffffff1690508073ffffffffffffffffffffffffffffffffffffffff166108fc600c60008473ffffffffffffffffffffffffffffffffffffffff1673ffffffffffffffffffffffffffffffffffffffff168152602001908152602001600020549081150290604051600060405180830381858888f19350505050158015611607573d6000803e3d6000fd5b50508080600101915050611539565b50565b600560009054906101000a900473ffffffffffffffffffffffffffffffffffffffff1681565b600560009054906101000a900473ffffffffffffffffffffffffffffffffffffffff1673ffffffffffffffffffffffffffffffffffffffff163373ffffffffffffffffffffffffffffffffffffffff161461169957600080fd5b600954600854146116a957600080fd5b6116b161138f565b156116bb57600080fd5b62278d004201601181905550565b600560009054906101000a900473ffffffffffffffffffffffffffffffffffffffff1673ffffffffffffffffffffffffffffffffffffffff163373ffffffffffffffffffffffffffffffffffffffff161461172357600080fd5b6009546008541061173357600080fd5b60075482101561174257600080fd5b6000600a856040518082805190602001908083835b6020831061177a5780518252602082019150602081019050602083039250611757565b6001836020036101000a038019825116818451168082178552505050505050905001915050908152602001604051809103902054146117b857600080fd5b6117c0611a5e565b6040518060a0016040528086815260200185815260200184815260200183815260200160008152509050600681908060018154018082558091505090600182039060005260206000209060050201600090919290919091506000820151816000019080519060200190611834929190611a8d565b506020820151816001019080519060200190611851929190611a8d565b50604082015181600201556060820151816003015560808201518160040155505050600860008154809291906001019190505550600854600a866040518082805190602001908083835b602083106118be578051825260208201915060208101905060208303925061189b565b6001836020036101000a0380198251168184511680821785525050505050509050019150509081526020016040518091039020819055505050505050565b60115481565b61190a610e2a565b61191357600080fd5b601060009054906101000a900460ff161561192d57600080fd5b600e54600f54101561193e57600080fd5b61194661139d565b61194f57600080fd5b6001601060006101000a81548160ff0219169083151502179055506001601060016101000a81548160ff021916908315150217905550600560009054906101000a900473ffffffffffffffffffffffffffffffffffffffff1673ffffffffffffffffffffffffffffffffffffffff166108fc600f549081150290604051600060405180830381858888f193505050501580156119ef573d6000803e3d6000fd5b50565b600f5481565b601060019054906101000a900460ff1681565b600a818051602081018201805184825260208301602085012081835280955050505050506000915090505481565b600e5481565b6000600f54600e541115611a565760009050611a5b565b600190505b90565b6040518060a0016040528060608152602001606081526020016000815260200160008152602001600081525090565b828054600181600116156101000203166002900490600052602060002090601f016020900481019282601f10611ace57805160ff1916838001178555611afc565b82800160010185558215611afc579182015b82811115611afb578251825591602001919060010190611ae0565b5b509050611b099190611b0d565b5090565b611b2f91905b80821115611b2b576000816000905550600101611b13565b5090565b9056fea265627a7a7231582062c2c6bac4e3630169ccdfb9d1b12f4b196494c66e27b7c0f867b7bb159ba59664736f6c63430005100032",
  "source": "pragma solidity ^0.5.16;\r\n\r\n\r\ncontract CrowdFundCampaign {\r\n\r\n    string public name;\r\n    bool public usingDesc;\r\n    string public description;\r\n    string public link;\r\n    string public linkHash;\r\n    address payable public owner;\r\n\r\n    Tier[] public tiers;\r\n    uint public minTierValue;\r\n    uint private currentNumTiers = 0;\r\n    uint public numTiers;\r\n    mapping(string => uint) public tierNameToIndex;\r\n\r\n    address payable[] public pledgers;\r\n    mapping(address => uint) public pledgedAmount;\r\n\r\n    uint public pledges = 0;\r\n    uint public target;\r\n    uint public funding = 0;\r\n    bool public closed = false;\r\n    bool public fundingAccepted = false;\r\n    uint public endDate = 0;\r\n\r\n\r\n    struct Tier {\r\n        string name;\r\n        string description;\r\n        uint cost;\r\n        uint quantity;\r\n        uint pledges;\r\n    }\r\n\r\n\r\n\r\n    modifier onlyOwner() {\r\n        require(msg.sender == owner);\r\n        _;\r\n    }\r\n\r\n\r\n\r\n    constructor(string memory _name, bool _usingDesc, string memory _description, string memory _link, string memory _linkHash, uint _minTierValue, uint _numTiers, uint _target) public {\r\n        // initialise core campaign parameters except tiers\r\n        name = _name;\r\n        usingDesc = _usingDesc;\r\n        description = _description;\r\n        link = _link;\r\n        linkHash = _linkHash;\r\n        owner = msg.sender;\r\n\r\n        minTierValue = _minTierValue;\r\n        numTiers = _numTiers;\r\n\r\n        target = _target;\r\n    }\r\n\r\n\r\n\r\n    function addTier(string memory _name, string memory _description, uint _cost, uint _quantity) onlyOwner public {\r\n        // adds a single tier\r\n        // checks not exceeding number of tiers or falling below min tier value\r\n        require(currentNumTiers < numTiers);\r\n        require(_cost >= minTierValue);\r\n        require(tierNameToIndex[_name] == 0); // require unique name\r\n        Tier memory newTier = Tier({\r\n                name: _name,\r\n                description: _description,\r\n                cost: _cost,\r\n                quantity: _quantity,\r\n                pledges: 0\r\n            });\r\n        tiers.push(newTier);\r\n        currentNumTiers++;\r\n        tierNameToIndex[_name] = currentNumTiers; // NOTE: this is supposed to be 1 higher than its actual index\r\n    }\r\n\r\n    function startCampaign() onlyOwner public {\r\n        require(currentNumTiers == numTiers);\r\n        require(!started());\r\n\r\n        // TODO: add deposit to be made payable here by sender\r\n\r\n        // where 30 is the set length for campaign to run for\r\n        endDate = now + 30 days;\r\n    }\r\n\r\n\r\n\r\n    function started() public view returns (bool) {\r\n        return (0 != endDate);\r\n    }\r\n\r\n    function ended() public view returns (bool) {\r\n        return (now >= endDate);\r\n    }\r\n\r\n    function linkHashUnchanged() public pure returns (bool) {\r\n        // TODO add way to check hash of link's website (the actual html page)\r\n        return true;\r\n    }\r\n\r\n    function funded() public view returns (bool) {\r\n        if (target > funding) {\r\n            return false;\r\n        }\r\n        else {\r\n            return true;\r\n        }\r\n    }\r\n\r\n\r\n\r\n    function pledge(string memory _tierName) public payable {\r\n        require(!ended());\r\n        require(started());\r\n        require(!closed);\r\n        uint tierIndex = tierNameToIndex[_tierName];\r\n        require(tierIndex != 0); // check tier exists\r\n        require(tiers[tierIndex].cost == msg.value); // check correct amount pledged\r\n        require(tiers[tierIndex].quantity > tiers[tierIndex].pledges);\r\n\r\n        if (pledgedAmount[msg.sender] == 0) {\r\n            pledgers.push(msg.sender);\r\n        }\r\n\r\n        pledgedAmount[msg.sender] += msg.value;\r\n        pledges++;\r\n        funding += msg.value;\r\n        tiers[tierIndex].pledges++;\r\n    }\r\n\r\n    // owner return funds to pledgers\r\n    function returnFundsToPledgersByOwner() onlyOwner public {\r\n        require(ended());\r\n        require(!closed);\r\n        closed = true;\r\n        fundingAccepted = false;\r\n\r\n        for (uint i = 0; i < pledgers.length; i++) {\r\n            address payable pledgeAddress = pledgers[i];\r\n            pledgeAddress.transfer(pledgedAmount[pledgeAddress]); // may want to add if not then throw around it\r\n        }\r\n\r\n    }\r\n\r\n    // pledgers return funds\r\n    function returnFundsToPledgersByPledger() public {\r\n        require(!closed);\r\n        require(now > endDate + 10 days); // after 10 days this unlocks\r\n        closed = true;\r\n        fundingAccepted = false;\r\n\r\n        for (uint i = 0; i < pledgers.length; i++) {\r\n            address payable pledgeAddress = pledgers[i];\r\n            pledgeAddress.transfer(pledgedAmount[pledgeAddress]); // may want to add if not then throw around it\r\n        }\r\n    }\r\n\r\n\r\n    // owner receives funds\r\n    function sendFundsToOwner() public {\r\n        require(ended());\r\n        require(!closed);\r\n        require(funding >= target);\r\n        require(linkHashUnchanged());\r\n        closed = true;\r\n        fundingAccepted = true;\r\n\r\n        owner.transfer(funding);\r\n\r\n    }\r\n}\r\n",
  "sourcePath": "C:\\Users\\fabie\\OneDrive\\EthereumProjects\\CrowdFundingDeFiCampaign\\contracts\\CrowdFundCampaign.sol",
  "compiler": {
    "name": "solc",
    "version": "0.5.16+commit.9c3226ce.Emscripten.clang"
  },
  "schemaVersion": "3.4.2",
  "updatedAt": "2021-09-20T18:20:45.125Z",
  "networkType": "ethereum",
  "devdoc": {
    "methods": {}
  },
  "userdoc": {
    "methods": {}
  }
}